:020000040800F2
:1000000000800020CD2A00087D0B00088B0B000823
:10001000910B0008970B00089D0B000800000000E2
:10002000000000000000000000000000A30B00081A
:10003000B10B000800000000BF0B0008CD0B00084A
:100040001D2B00081D2B00081D2B00081D2B000870
:100050001D2B00081D2B00081D2B00081D2B000860
:100060001D2B00081D2B00081D2B00081D2B000850
:100070001D2B00081D2B00081D2B00081D2B000840
:100080001D2B00081D2B00081D2B00080000000080
:100090000000000000000000000000001D2B000810
:1000A0001D2B00081D2B00081D2B00081D2B000810
:1000B0000000000000000000000000001D2B0008F0
:1000C0001D2B00081D2B00081D2B00081D2B0008F0
:1000D0001D2B00081D2B00081D2B00080000000030
:1000E000D10500081D2B00080000000000000000E2
:1000F0000000000000000000000000001D2B0008B0
:1001000000000000000000001D2B0008000000009F
:1001100000000000000000001D2B0008000000008F
:100120001D2B00081D2B00081D2B00081D2B00088F
:100130001D2B00080000000000000000000000006F
:1001400000000000000000000000000000000000AF
:100150001D2B00081D2B00081D2B00081D2B00085F
:10016000000000000000000000000000000000008F
:10017000000000000000000000000000000000007F
:100180001D2B00081D2B00080000000000000000CF
:10019000000000001D2B000800000000000000000F
:1001A000000000000000000000000000000000004F
:1001B0000000000000000000000000001D2B0008EF
:0801C0001D2B00081D2B000897
:1001D00010B5054C237833B9044B13B10448AFF381
:1001E00000800123237010BD740000200000000077
:1001F000FC64000808B5034B1BB103490348AFF387
:10020000008008BD0000000078000020FC640008A9
:10021000034613F8012B002AFBD1181A0138704746
:1002200001F0FF01102A2BDB10F0070F08D010F8A7
:10023000013B013A8B422DD010F0070F42B3F6D1AB
:10024000F0B441EA012141EA014122F007047FF0C4
:1002500000070023F0E80256083C85EA010586EA1B
:10026000010685FA47F5A3FA87F586FA47F6A5FA57
:1002700087F68EB9EED1F0BC01F0FF0102F0070263
:1002800032B110F8013B013A83EA010313B1F8D10E
:100290000020704701387047002D06BF35460338EF
:1002A000073815F0010F07D1013015F4807F02BF28
:1002B000013015F4C03F0130F0BC0138704700BF79
:1002C00053B94AB9002908BF00281CBF4FF0FF31BD
:1002D0004FF0FF3000F07AB9ADF1080C6DE904CEB3
:1002E00000F006F8DDF804E0DDE9022304B0704711
:1002F0002DE9F0478C460D460446089E002B51D14F
:100300008A4217466DD9B2FA82FEBEF1000F0BD0B9
:10031000CEF1200C01FA0EF520FA0CFC02FA0EF7D1
:100320004CEA050C00FA0EF44FEA174A250CBCFB08
:10033000FAF81FFA87F90AFB18CC45EA0C4508FBC6
:1003400009F3AB420AD9ED1908F1FF3280F023819D
:10035000AB4240F22081A8F102083D44ED1AA4B25C
:10036000B5FBFAF00AFB105544EA054400FB09F915
:10037000A14509D9E41900F1FF3380F00A81A145B4
:1003800040F2078102383C44A4EB090440EA0840EB
:100390000021002E61D024FA0EF400233460736033
:1003A000BDE8F0878B4207D9002E54D0002186E8A3
:1003B00021000846BDE8F087B3FA83F1002940F038
:1003C0008E80AB4202D3824200F2FA80841A65EB3F
:1003D00003050120AC46002E3FD086E81010BDE892
:1003E000F08712B90127B7FBF2F7B7FA87FEBEF123
:1003F000000F34D1EB1B3A0C1FFA87FC0121B3FB31
:10040000F2F8250C02FB183345EA03450CFB08F310
:10041000AB4207D9ED1908F1FF3002D2AB4200F22E
:10042000D1808046ED1AA3B2B5FBF2F002FB105565
:1004300043EA05440CFB00FCA44507D9E41900F18C
:10044000FF3302D2A44500F2B8801846A4EB0C0496
:1004500040EA08409DE731463046BDE8F087CEF1DE
:10046000200405FA0EF307FA0EF720FA04F83A0C06
:1004700025FA04F448EA0308B4FBF2F14FEA184500
:1004800002FB11441FFA87FC45EA044501FB0CF30B
:10049000AB4200FA0EF409D9ED1901F1FF3080F0FA
:1004A0008A80AB4240F2878002393D44EB1A1FFA42
:1004B00088F5B3FBF2F002FB103345EA034500FB7D
:1004C0000CF3AB4207D9ED1900F1FF386FD2AB4204
:1004D0006DD902383D44EB1A40EA01418FE7C1F182
:1004E000200722FA07F88B4005FA01F448EA0303D3
:1004F00020FA07FE4FEA134CFD404EEA040EB5FB0E
:10050000FCF94FEA1E440CFB19551FFA83F844EA24
:10051000054509FB08F4AC4202FA01F200FA01FABF
:1005200008D9ED1809F1FF3043D2AC4241D9A9F105
:1005300002091D442D1B1FFA8EFEB5FBFCF00CFBBF
:1005400010554EEA054400FB08F8A04507D9E41809
:1005500000F1FF3529D2A04527D902381C4440EAD2
:100560000940A4EB0804A0FB02894C45C6464D4651
:1005700015D312D056B1BAEB0E0364EB050404FA9E
:1005800007F7CB401F43CC40376074600021BDE8C3
:10059000F0871846F8E69046E0E6C245EAD2B8EBA6
:1005A000020E69EB03050138E4E72846D7E7404629
:1005B00091E78146BEE7014678E702383C4445E7CB
:1005C000084608E7A8F102083D442BE7704700BF42
:1005D00080B582B000AF084B5B6903F40043002B89
:1005E00002D04FF40043FB80FB88184600F004FF64
:1005F00000BF0837BD4680BD003C014080B582B0D9
:1006000000AF0346FB80FB88B3F5004F01D102F039
:10061000EDFC00BF0837BD4680BD000080B582B04C
:1006200000AF7860391D4FF6FF730122034801F0D7
:100630002CFE7B6818460837BD4680BDDC010020D3
:1006400080B58AB002AF03463960FB71FB79113B7C
:10065000212B00F2DF8001A252F823F0E50600080A
:1006600015080008170700081508000815080008F5
:1006700015080008150800081508000815080008E6
:1006800015080008150800081508000815080008D6
:1006900015080008150800081508000815080008C6
:1006A00015080008150800081508000815080008B6
:1006B00015080008150800081508000815080008A6
:1006C0001508000815080008BB07000815080008F1
:1006D0001508000815080008150800081508000886
:1006E000E30700083B68FB614E4B00221A70FB6970
:1006F0001B78002B0BD04B4B1B78184603F0F4FBF8
:10070000484B1B780133DAB2464B1A7085E0FF2064
:1007100003F0ACFB81E03B68BB61BB690A33184660
:10072000FFF776FD0346FB823E4B1B781946BB69FB
:100730000A331A463C4804F085FF03F0F3FB0346F6
:100740001A463A4B1A70FB8A002B1CD00423BB823A
:10075000BA8AFB8A9A4216D1BB690A33BA8A3449EB
:10076000184604F057FF0346002B0CD1304931489E
:1007700004F068FFFF2300932F4B022205212C4831
:1007800003F023FA49E0274B1A78284B1B789A424A
:100790000BD2244B1B78184603F0A6FB214B1B7889
:1007A0000133DAB21F4B1A7037E02149234804F0B5
:1007B00049FFFF2003F05AFB2FE03B683B613B6998
:1007C0001B78012B02D103F048FB25E03B691B7825
:1007D000002B21D11A4804F0A9FFFF2003F046FBAB
:1007E0001AE03B68FB60174804F0A0FFFB681B7829
:1007F0001946FB6801331B781A46FB6802331B78E5
:100800001846FB6803331B78009303460E4804F038
:1008100019FF02E000BF00E000BF00BF2037BD4667
:1008200080BD00BF900000201465000891000020EA
:10083000246500082C650008386500084465000838
:100840005C650008706500088465000880B588B0A4
:1008500000AF00F071FA00F03BF801224FF40041C4
:10086000174800F0AFFD00F09FF800F0D3F81548EE
:1008700004F05CFF02F0D8F93B1D18220021184655
:1008800004F0D7FE104B7B603B1D184603F00EF9B9
:100890000346FB7797F91F30002B06D097F91F30DE
:1008A00019460A4804F0CEFEFEE7FF2003F0DEFA08
:1008B00000BF002003F07EF90346002BF9D1F7E7D3
:1008C00000040240A065000841060008AC6500086D
:1008D00080B594B000AF07F11C0334220021184604
:1008E00004F0A7FE07F1080300221A605A609A601C
:1008F000DA601A6100237B60294A294B1B6C43F0A4
:1009000080531364264B1B6C03F080537B607B6821
:1009100000233B60234A234B1B6843F4404313608E
:10092000204B1B6803F440433B603B680223FB61A0
:100930000123BB621023FB6202237B630023BB63A2
:100940001023FB634FF4A8733B6404237B640423EC
:10095000BB640223FB6407F11C03184600F056FF3A
:100960000346002B01D000F07FF80F23BB60022369
:10097000FB6000233B614FF480537B610023BB612C
:1009800007F108030221184600F04EFD0346002B34
:1009900001D000F069F800BF5037BD4680BD00BFF0
:1009A000003802400070004080B500AF174B184A75
:1009B0001A60164B4FF482725A60144B00229A60F0
:1009C000124B0022DA60114B00221A610F4B0022F9
:1009D0005A610E4B4FF400729A610C4B0822DA6197
:1009E0000A4B00221A62094B00225A62074B00226E
:1009F0009A62064B0A22DA62044801F049F903467A
:100A0000002B01D000F030F800BF80BD2002002094
:100A10000038004080B500AF114B124A1A60104BED
:100A20004FF4E1325A600E4B00229A600C4B0022C8
:100A3000DA600B4B00221A61094B0C225A61084BF9
:100A400000229A61064B0022DA61054801F0D0FBD2
:100A50000346002B01D000F007F800BF80BD00BFA7
:100A6000DC0100200044004080B400AF00BFBD4660
:100A70005DF8047B7047000080B582B000AF0023B2
:100A80007B60104A0F4B5B6C43F4804353640D4B07
:100A90005B6C03F480437B607B6800233B60094A06
:100AA000084B1B6C43F080531364064B1B6C03F024
:100AB00080533B603B68072000F0C2FA00BF083754
:100AC000BD4680BD0038024080B582B000AF78607E
:100AD0007B681B68044A934202D1786802F07AF975
:100AE00000BF0837BD4680BD0038004080B58AB0E1
:100AF00000AF786007F1140300221A605A609A6010
:100B0000DA601A617B681B68194A93422BD1002373
:100B10003B61184A174B1B6C43F400331364154BAD
:100B20001B6C03F400333B613B690023FB60114AFB
:100B3000104B1B6B43F0010313630E4B1B6B03F055
:100B40000103FB60FB680C237B610223BB61002374
:100B5000FB6103233B6207237B6207F11403194601
:100B6000054800F0BDFA00BF2837BD4680BD00BF74
:100B700000440040003802400000024080B400AF52
:100B800000BFBD465DF8047B704780B400AFFEE750
:100B900080B400AFFEE780B400AFFEE780B400AFE2
:100BA000FEE780B400AF00BFBD465DF8047B704730
:100BB00080B400AF00BFBD465DF8047B704780B4D1
:100BC00000AF00BFBD465DF8047B704780B500AF45
:100BD00000F004F900BF80BD90B587B000AFF860A9
:100BE000B9607A6000237B610AE0BC68631CBB606B
:100BF000AFF300800346DBB223707B6901337B6176
:100C00007A697B689A42F0DB7B6818461C37BD46E0
:100C100090BD80B586B000AFF860B9607A600023FF
:100C20007B6109E0BB685A1CBA601B781846FFF765
:100C3000F5FC7B6901337B617A697B689A42F1DB61
:100C40007B6818461837BD4680BD000080B584B06B
:100C500000AF7860114B1B68002B02D10F4B104A7C
:100C60001A600E4B1B68FB600C4B1A687B681344C0
:100C70006A46934207D904F0A3FC02460C23136092
:100C80004FF0FF3306E0054B1A687B681344034AB4
:100C90001360FB6818461037BD4680BD94000020E5
:100CA000A402002080B483B000AF78604FF0FF331F
:100CB00018460C37BD465DF8047B704780B483B09E
:100CC00000AF786039603B684FF400525A600023EF
:100CD00018460C37BD465DF8047B704780B483B07E
:100CE00000AF7860012318460C37BD465DF8047BE1
:100CF000704780B485B000AFF860B9607A600023B7
:100D000018461437BD465DF8047B704780B400AFC9
:100D1000084A084BD3F8883043F47003C2F888308F
:100D2000044B4FF000629A6000BFBD465DF8047B43
:100D3000704700BF00ED00E080B500AF0E4A0E4BDB
:100D40001B6843F4007313600B4A0B4B1B6843F49E
:100D500080631360084A084B1B6843F48073136078
:100D6000032000F06DF9002000F008F8FFF784FE82
:100D70000023184680BD00BF003C024080B582B011
:100D800000AF7860124B1A68124B1B7819464FF46B
:100D90007A73B3FBF1F3B2FBF3F3184600F093F967
:100DA0000346002B01D001230EE07B680F2B0AD8ED
:100DB000002279684FF0FF3000F04DF9064A7B6859
:100DC0001360002300E0012318460837BD4680BDAC
:100DD00000000020080000200400002080B400AFC4
:100DE000064B1B781A46064B1B681344044A1360D3
:100DF00000BFBD465DF8047B704700BF08000020BF
:100E00001C02002080B400AF034B1B681846BD468F
:100E10005DF8047B704700BF1C02002080B584B0E1
:100E200000AF7860FFF7EEFFB8607B68FB60FB689F
:100E3000B3F1FF3F05D0094B1B781A46FB681344FA
:100E4000FB6000BFFFF7DEFF0246BB68D21AFB68FB
:100E50009A42F7D300BF1037BD4680BD080000207E
:100E600080B485B000AF78607B6803F00703FB6057
:100E70000C4BDB68BB60BA684FF6FF031340BB60E6
:100E8000FB681A02BB68134343F0BF6343F40033AB
:100E9000BB60044ABB68D36000BF1437BD465DF831
:100EA000047B704700ED00E080B400AF044BDB68CA
:100EB0001B0A03F007031846BD465DF8047B704724
:100EC00000ED00E080B483B000AF0346FB7197F9FA
:100ED0000730002B0BDB094997F907305B09FA79DA
:100EE00002F01F02012000FA02F241F8232000BFA5
:100EF0000C37BD465DF8047B704700BF00E100E0A1
:100F000080B483B000AF0346FB7197F90730002B24
:100F100010DB0B4997F907305B09FA7902F01F02E1
:100F2000012000FA02F2203341F82320BFF34F8F53
:100F3000BFF36F8F00BF0C37BD465DF8047B704771
:100F400000E100E080B483B000AF03463960FB717C
:100F500097F90730002B0ADB0D4997F907303A68FB
:100F6000D2B21201D2B20B4483F800230AE009493D
:100F7000FB7903F00F03043B3A68D2B21201D2B2FC
:100F80000B441A7600BF0C37BD465DF8047B7047F2
:100F900000E100E000ED00E080B489B000AFF8604F
:100FA000B9607A60FB6803F00703FB61FB69C3F17A
:100FB0000703042B28BF0423BB61FB690433062B02
:100FC00002D9FB69033B00E000237B610122BB697E
:100FD00002FA03F35A1EBB681A407B699A4001214A
:100FE0007B6901FA03F3591E7B680B4013431846D3
:100FF0002437BD465DF8047B7047000080B582B0A1
:1010000000AF78607B68013BB3F1807F01D301239F
:101010000FE00A4A7B68013B53600F214FF0FF301D
:10102000FFF790FF054B00229A60044B07221A60DD
:10103000002318460837BD4680BD00BF10E000E021
:1010400080B582B000AF78607868FFF709FF00BF15
:101050000837BD4680BD80B586B000AF0346B96095
:101060007A60FB7300237B61FFF71EFF78617A686B
:10107000B9687869FFF790FF024697F90F3011467B
:101080001846FFF75FFF00BF1837BD4680BD80B52B
:1010900082B000AF0346FB7197F907301846FFF79F
:1010A00011FF00BF0837BD4680BD80B582B000AFDC
:1010B0000346FB7197F907301846FFF721FF00BF81
:1010C0000837BD4680BD80B582B000AF78607868D3
:1010D000FFF794FF034618460837BD4680BD000061
:1010E00080B489B000AF7860396000237B61002351
:1010F0003B610023BB610023FB614DE10122FB69E1
:1011000002FA03F37B613B681A687B6913403B6119
:101110003A697B699A4240F03C813B685B68012BED
:101120000BD03B685B68022B07D03B685B68112BD8
:1011300003D03B685B68122B30D17B689B68BB6136
:10114000FB695B00032202FA03F3DB43BA69134035
:10115000BB613B68DA68FB695B0002FA03F3BA69BA
:101160001343BB617B68BA699A607B685B68BB614B
:101170000122FB6902FA03F3DB43BA691340BB6146
:101180003B685B681B0903F00102FB6902FA03F389
:10119000BA691343BB617B68BA695A607B68DB68D4
:1011A000BB61FB695B00032202FA03F3DB43BA690C
:1011B0001340BB613B689A68FB695B0002FA03F36A
:1011C000BA691343BB617B68BA69DA603B685B68E4
:1011D000022B03D03B685B68122B23D1FB69DA0832
:1011E0007B68083253F82230BB61FB6903F00703C8
:1011F0009B000F2202FA03F3DB43BA691340BB6181
:101200003B681A69FB6903F007039B0002FA03F3CA
:10121000BA691343BB61FB69DA087B680832B969B4
:1012200043F822107B681B68BB61FB695B000322EB
:1012300002FA03F3DB43BA691340BB613B685B68A6
:1012400003F00302FB695B0002FA03F3BA6913437C
:10125000BB617B68BA691A603B685B6803F08053C6
:10126000002B00F096800023FB60504A4F4B5B6CD4
:1012700043F4804353644D4B5B6C03F48043FB6049
:10128000FB684B4AFB699B08023352F82330BB6171
:10129000FB6903F003039B000F2202FA03F3DB4315
:1012A000BA691340BB617B68424A93420DD07B68A8
:1012B000414A934207D07B68404A934201D10223BE
:1012C00004E0072302E0012300E00023FA6902F0B2
:1012D000030292009340BA691343BB613449FB692E
:1012E0009B080233BA6941F82320354B1B68BB6168
:1012F0003B69DB43BA691340BB613B685B6803F43D
:101300008033002B03D0BA693B691343BB612C4A7D
:10131000BB6913602A4B5B68BB613B69DB43BA69FD
:101320001340BB613B685B6803F40033002B03D0C0
:10133000BA693B691343BB61214ABB695360204BC7
:101340009B68BB613B69DB43BA691340BB613B6887
:101350005B6803F48013002B03D0BA693B69134325
:10136000BB61174ABB699360154BDB68BB613B6986
:10137000DB43BA691340BB613B685B6803F400134D
:10138000002B03D0BA693B691343BB610C4ABB69AC
:10139000D360FB690133FB61FB690F2B7FF6AEAEB7
:1013A00000BF2437BD465DF8047B7047003802401B
:1013B00000380140000002400004024000080240E2
:1013C000003C014080B483B000AF78600B467B8066
:1013D00013467B707B78002B03D07A887B689A61F8
:1013E00003E07B881A047B689A6100BF0C37BD4616
:1013F0005DF8047B7047000080B582B000AF034603
:10140000FB80084B5A69FB881340002B06D0054A25
:10141000FB885361FB881846FFF7F0F800BF0837D8
:10142000BD4680BD003C014080B584B000AF78600F
:1014300039607B68002B01D10123CCE0684B1B682D
:1014400003F00F023B689A420CD2654B3A68D2B265
:101450001A70634B1B6803F00F023B689A4201D07D
:101460000123B8E07B681B6803F00203002B20D047
:101470007B681B6803F00403002B05D0594A594BC5
:101480009B6843F4E05393607B681B6803F0080398
:10149000002B05D0534A534B9B6843F46043936041
:1014A0005049504B9B6823F0F0027B689B681343C4
:1014B0008B607B681B6803F00103002B44D07B68C2
:1014C0005B68012B07D1474B1B6803F40033002BEB
:1014D00019D101237FE07B685B68022B03D07B6816
:1014E0005B68032B07D13F4B1B6803F00073002B95
:1014F00009D101236FE03B4B1B6803F00203002B73
:1015000001D1012367E03749364B9B6823F0030282
:101510007B685B6813438B60FFF774FCF8600AE03C
:10152000FFF770FC0246FB68D31A41F288329342FF
:1015300001D903234FE02B4B9B6803F00C027B681F
:101540005B689B009A42EBD1254B1B6803F00F02AE
:101550003B689A420CD9224B3A68D2B21A70204B9F
:101560001B6803F00F023B689A4201D0012332E06E
:101570007B681B6803F00403002B08D01949194B42
:101580009B6823F4E0527B68DB6813438B607B68C5
:101590001B6803F00803002B09D01249114B9B680C
:1015A00023F460427B681B69DB0013438B6000F00F
:1015B00021F801460B4B9B681B0903F00F030A4AF5
:1015C000D35C21FA03F3094A1360094B1B681846E0
:1015D000FFF7D4FB002318461037BD4680BD00BF7F
:1015E000003C0240003802409466000800000020E1
:1015F000040000202DE9F04F8FB000AF0023FB6204
:1016000000237B630023BB6200233B63624B9B6828
:1016100003F00C03042B07D0082B08D0002B40F05C
:10162000B2805E4B3B63B1E05D4B3B63AEE05A4B37
:101630005B6803F03F03FB62574B5B6803F4800376
:10164000002B4ED0544B5B689B094FF0000440F2D6
:10165000FF114FF0000201EA030102EA04020B4607
:10166000144660017862786A40EAD36078625B0170
:101670003B62D7E908345B1A64EB02044FEA841931
:1016800049EA93694FEA8318B8EB030869EB040948
:101690004FEAC903FB61FB6943EA5873FB614FEAF8
:1016A000C803BB61D7E9068918EB010849EB0209B9
:1016B0004FEA49237B617B6943EAD8537B614FEA58
:1016C00048233B61D7E9048940464946FB6A4FF00D
:1016D00000041A462346FEF7F3FD03460C467B63DF
:1016E00043E02D4B5B689B094FF0000440F2FF1173
:1016F0004FF0000201EA030102EA04020B4614461D
:101700006001F860F86840EAD360F8605B01BB6094
:10171000D7E902345B1A64EB0204A60146EA936639
:101720009D01ED1A66EB0406F3007B607B6843EADB
:1017300055737B60EB003B6097E860006D1846EBEB
:1017400002064FEA862B4BEA955B4FEA852A5546FF
:101750005E4628463146FB6A4FF000041A4623468F
:10176000FEF7AEFD03460C467B630B4B5B681B0C20
:1017700003F0030301335B00BB627A6BBB6AB2FB0D
:10178000F3F33B6302E0054B3B6300BF3B6B184642
:101790003C37BD46BDE8F08F003802400024F4001D
:1017A00000127A0080B400AF034B1B681846BD4698
:1017B0005DF8047B704700BF0000002080B500AFDB
:1017C000FFF7F0FF0146054B9B689B0A03F00703F8
:1017D000034AD35C21FA03F3184680BD0038024067
:1017E000A466000880B500AFFFF7DCFF0146054B9B
:1017F0009B685B0B03F00703034AD35C21FA03F3F6
:10180000184680BD00380240A466000880B586B046
:1018100000AF786000233B617B681B6803F0010325
:10182000002B75D0A24B9B6803F00C03042B0CD04B
:101830009F4B9B6803F00C03082B12D19C4B5B68F9
:1018400003F48003B3F5800F0BD1994B1B6803F4AD
:101850000033002B5BD07B685B68002B57D10123E2
:101860000BE27B685B68B3F5803F06D1904A904BF2
:101870001B6843F4803313601DE07B685B68B3F53D
:10188000A02F0CD18A4A8A4B1B6843F48023136033
:10189000874A874B1B6843F4803313600BE0844A0C
:1018A000834B1B6823F480331360814A804B1B6891
:1018B00023F4802313607B685B68002B13D0FFF751
:1018C000A1FA386108E0FFF79DFA02463B69D31A96
:1018D000642B01D90323D0E1754B1B6803F400335B
:1018E000002BF0D014E0FFF78DFA386108E0FFF725
:1018F00089FA02463B69D31A642B01D90323BCE160
:101900006B4B1B6803F40033002BF0D100E000BFE9
:101910007B681B6803F00203002B63D0644B9B6859
:1019200003F00C03002B0BD0614B9B6803F00C03FE
:10193000082B1CD15E4B5B6803F48003002B16D18F
:101940005B4B1B6803F00203002B05D07B68DB6850
:10195000012B01D0012390E15549554B1B6823F021
:10196000F8027B681B69DB0013430B603AE07B687D
:10197000DB68002B20D04F4B01221A60FFF742FAA0
:10198000386108E0FFF73EFA02463B69D31A022BA2
:1019900001D9032371E1464B1B6803F00203002BBE
:1019A000F0D04349424B1B6823F0F8027B681B6967
:1019B000DB0013430B6015E03E4B00221A60FFF77B
:1019C00021FA386108E0FFF71DFA02463B69D31A95
:1019D000022B01D9032350E1354B1B6803F00203AE
:1019E000002BF0D17B681B6803F00803002B30D07C
:1019F0007B685B69002B16D02F4B01221A60FFF722
:101A000001FA386108E0FFF7FDF902463B69D31A95
:101A1000022B01D9032330E1254B5B6F03F0020356
:101A2000002BF0D015E0244B00221A60FFF7EAF9F2
:101A3000386108E0FFF7E6F902463B69D31A022B4A
:101A400001D9032319E11A4B5B6F03F00203002B4A
:101A5000F0D17B681B6803F00403002B00F09F802B
:101A60000023FB75124B1B6C03F08053002B0FD12E
:101A70000023FB600E4A0E4B1B6C43F08053136433
:101A80000B4B1B6C03F08053FB60FB680123FB7561
:101A90000A4B1B6803F48073002B20D1074A074BC5
:101AA0001B6843F480731360FFF7ACF9386110E0F2
:101AB0000038024000004742800E4742007000405C
:101AC000FFF7A0F902463B69D31A022B01D9032381
:101AD000D3E06C4B1B6803F48073002BF0D07B6861
:101AE0009B68012B06D1684A674B1B6F43F00103CB
:101AF00013671CE07B689B68052B0CD1624A624B24
:101B00001B6F43F0040313675F4A5F4B1B6F43F087
:101B1000010313670BE05C4A5B4B1B6F23F001036F
:101B20001367594A584B1B6F23F0040313677B68F4
:101B30009B68002B15D0FFF765F938610AE0FFF7C5
:101B400061F902463B69D31A41F28832934201D9C6
:101B5000032392E04C4B1B6F03F00203002BEED0EB
:101B600014E0FFF74FF938610AE0FFF74BF902463E
:101B70003B69D31A41F28832934201D903237CE0B6
:101B8000414B1B6F03F00203002BEED1FB7D012BB9
:101B900005D13D4A3C4B1B6C23F0805313647B689A
:101BA0009B69002B68D0384B9B6803F00C03082B13
:101BB00060D07B689B69022B45D1344B00221A60B0
:101BC000FFF720F9386108E0FFF71CF902463B698E
:101BD000D31A022B01D903234FE02B4B1B6803F0D0
:101BE0000073002BF0D128497B68DA697B681B6A97
:101BF0001A437B685B6A9B011A437B689B6A5B089C
:101C0000013B1B041A437B68DB6A1B061A437B6893
:101C10001B6B1B0713434B601C4B01221A60FFF721
:101C2000F1F8386108E0FFF7EDF802463B69D31A96
:101C3000022B01D9032320E0134B1B6803F0007330
:101C4000002BF0D018E0114B00221A60FFF7DAF8F1
:101C5000386108E0FFF7D6F802463B69D31A022B39
:101C600001D9032309E0084B1B6803F00073002B24
:101C7000F0D101E0012300E0002318461837BD46EB
:101C800080BD00BF00700040003802406000474245
:101C900080B582B000AF78607B68002B01D1012352
:101CA00055E07B6800229A627B6893F85130DBB282
:101CB000002B06D17B68002283F850207868FEF75D
:101CC00003FF7B68022283F851207B681B687A68D7
:101CD0001268126822F040021A607B681B687A68FA
:101CE00051687A68926811437A68D26811437A68B9
:101CF000126911437A68526911437A68926902F451
:101D0000007211437A68D26911437A68126A1143EA
:101D10007A68926A0A431A607B681B687A689269DB
:101D2000120C02F004017A68526A0A435A607B6816
:101D30001B687A681268D26922F40062DA617B68F3
:101D400000225A657B68012283F85120002318463F
:101D50000837BD4680BD80B58CB000AFF860B96073
:101D60007A607B800123FB62002387F82B30FB68BD
:101D700093F85030012B01D1022388E1FB68012246
:101D800083F85020FFF73EF87862FB6893F85130F3
:101D900087F82330FB685B68FB617B887B8397F85F
:101DA0002330012B0FD0FB69B3F5827F07D1FB688D
:101DB0009B68002B03D197F82330042B03D0022318
:101DC00087F82B3059E1BB68002B05D07B68002BCE
:101DD00002D07B88002B03D1012387F82B304CE104
:101DE000FB6893F85130DBB2042B03D0FB6805226B
:101DF00083F85120FB6800225A65FB687A689A6371
:101E0000FB687A88DA87FB687A889A87FB68BA6801
:101E10001A63FB687A88DA86FB687A889A86FB6898
:101E200000221A64FB6800225A64FB681B681B6866
:101E300003F04003402B07D0FB681B68FA68126868
:101E4000126842F040021A60FB68DB68B3F5006F6D
:101E500078D1FB685B68002B02D07B8B012B66D1AD
:101E6000FB681B68FA68126B1288DA60FB681B6BF0
:101E70009A1CFB681A63FB68DB8E9BB2013B9AB22B
:101E8000FB68DA8653E0FB681B689B6803F002037B
:101E9000022B1BD1FB68DB8E9BB2002B16D0FB6A9A
:101EA000012B13D1FB681B68FA68126B1288DA6089
:101EB000FB681B6B9A1CFB681A63FB68DB8E9BB28A
:101EC000013B9AB2FB68DA860023FB62FB681B6861
:101ED0009B6803F00103012B19D1FB68DB8F9BB2D8
:101EE000002B14D0FB689B6BFA681268D26892B220
:101EF0001A80FB689B6B9A1CFB689A63FB68DB8FFC
:101F00009BB2013B9AB2FB68DA870123FB62FEF7C2
:101F100079FF02467B6AD21ABB6B9A4207D3BB6B2E
:101F2000B3F1FF3F03D0032387F82B30A5E0FB6814
:101F3000DB8E9BB2002BA6D1FB68DB8F9BB2002B04
:101F4000A1D17CE0FB685B68002B02D07B8B012B6E
:101F50006BD1FB681B680C33FA68126B12781A702D
:101F6000FB681B6B5A1CFB681A63FB68DB8E9BB219
:101F7000013B9AB2FB68DA8657E0FB681B689B68F6
:101F800003F00203022B1CD1FB68DB8E9BB2002BFB
:101F900017D0FB6A012B14D1FB681B680C33FA685D
:101FA000126B12781A70FB681B6B5A1CFB681A6361
:101FB000FB68DB8E9BB2013B9AB2FB68DA8600239A
:101FC000FB62FB681B689B6803F00103012B19D1BE
:101FD000FB68DB8F9BB2002B14D0FB689B6BFA680D
:101FE0001268D268D2B21A70FB689B6B5A1CFB68ED
:101FF0009A63FB68DB8F9BB2013B9AB2FB68DA877E
:102000000123FB62FEF7FEFE02467B6AD21ABB6B1F
:102010009A4203D3BB6BB3F1FF3F02D1BB6B002BE2
:1020200003D1032387F82B3027E0FB68DB8E9BB2BC
:10203000002BA2D1FB68DB8F9BB2002B9DD17A6A6B
:10204000B96BF86800F092F80346002B06D0012324
:1020500087F82B30FB6820225A650EE0FB689B68EE
:10206000002B0AD100237B61FB681B68DB687B6166
:10207000FB681B689B687B617B69FB68012283F8B6
:102080005120FB68002283F8502097F82B30184627
:102090003037BD4680BD80B584B000AFF860B96010
:1020A0003B601346FB714CE03B68B3F1FF3F48D007
:1020B000FEF7A8FE0246BB69D21A3B689A4202D2DA
:1020C0003B68002B3DD1FB681B68FA6812685268B8
:1020D00022F0E0025A60FB685B68B3F5827F11D1A1
:1020E000FB689B68B3F5004F04D0FB689B68B3F5B1
:1020F000806F07D1FB681B68FA681268126822F0CB
:1021000040021A60FB689B6AB3F5005F0FD1FB6861
:102110001B68FA681268126822F400521A60FB68A1
:102120001B68FA681268126842F400521A60FB6871
:10213000012283F85120FB68002283F850200323FA
:102140000FE0FB681B689A68BB681A40BB689A423C
:102150000CBF01230023DBB21A46FB799A42A3D1BC
:10216000002318461037BD4680BD000080B588B0FA
:1021700002AFF860B9607A601B4B1B681B4AA2FB78
:1021800003235B0D4FF47A7202FB03F37B61FB6860
:102190005B68B3F5827F12D17B680093BB68002235
:1021A0008021F868FFF777FF0346002B16D0FB6805
:1021B0005B6D43F02002FB685A6503230FE07B69E7
:1021C000002B0AD07B69013B7B61FB681B689B6825
:1021D00003F08003802BF2D000E000BF00231846FC
:1021E0001837BD4680BD00BF00000020819F5E16ED
:1021F00080B582B000AF78607B68002B01D10123ED
:102200003FE07B6893F83930DBB2002B06D17B6866
:10221000002283F838207868FEF768FC7B68242267
:1022200083F839207B681B687A681268D26822F4C8
:102230000052DA60786800F00BF97B681B687A68F6
:102240001268126922F490421A617B681B687A68EE
:102250001268526922F02A025A617B681B687A6808
:102260001268D26842F40052DA607B680022DA63B6
:102270007B68202283F839207B68202283F83A206B
:10228000002318460837BD4680BD80B588B002AF30
:10229000F860B9603B601346FB8000237B61FB68FC
:1022A00093F83930DBB2202B40F08280BB68002BE2
:1022B00002D0FB88002B01D101237AE0FB6893F860
:1022C0003830012B01D1022373E0FB68012283F82F
:1022D0003820FB680022DA63FB68212283F839206A
:1022E000FEF790FD7861FB68FA889A84FB68FA88AB
:1022F000DA84FB68002283F8382041E0FB68DB8C3D
:102300009BB2013B9AB2FB68DA84FB689B68B3F529
:10231000805F21D13B6800937B6900228021F868AF
:1023200000F04BF80346002B01D0032341E0BB68CB
:102330003B61FB681B683A691288C2F308025A6065
:10234000FB681B69002B03D1BB680233BB6017E03D
:10235000BB680133BB6013E03B6800937B690022DC
:102360008021F86800F029F80346002B01D00323F0
:102370001FE0FB681A68BB68591CB9601B78536082
:10238000FB68DB8C9BB2002BB8D13B6800937B6968
:1023900000224021F86800F010F80346002B01D01D
:1023A000032306E0FB68202283F83920002300E0A5
:1023B000022318461837BD4680BD80B584B000AFF3
:1023C000F860B9603B601346FB712CE0BB69B3F168
:1023D000FF3F28D0BB69002B07D0FEF713FD024654
:1023E0003B68D21ABB699A421DD9FB681B68FA6820
:1023F0001268D26822F4D072DA60FB681B68FA684F
:102400001268526922F001025A61FB68202283F8A7
:102410003920FB68202283F83A20FB68002283F8E9
:10242000382003230FE0FB681B681A68BB681A405A
:10243000BB689A420CBF01230023DBB21A46FB792A
:102440009A42C3D0002318461037BD4680BD000015
:102450002DE9F04FA3B000AFF867FB6F1968FB6F71
:102460001B681B6923F44052FB6FDB6813430B614D
:10247000FB6F9A68FB6F1B691A43FB6F5B691A431A
:10248000FB6FDB691343C7F88430FB6F1968FB6F80
:102490001B68DB6823F4164222F00C02D7F8843064
:1024A0001343CB60FB6F1968FB6F1B685B6923F4F8
:1024B0004072FB6F9B6913434B61FB6FDB69B3F5A4
:1024C000004F40F07181FB6F1B68B44A934205D006
:1024D000FB6F1B68B24A934240F0B180FFF782F96C
:1024E000C7F88000FB6F1D68D7F8803019464FF0A1
:1024F00000020B461446DB1844EB04045B1844EB63
:102500000204E0007864786C40EA53707864DB0081
:102510003B64D7E9103413EB010844EB0209404651
:102520004946FB6F5B684FF00004DB1844EB040482
:102530001A462346FDF7C4FE03460C461A46994B3D
:10254000A3FB02235B091E01D7F8803019464FF028
:1025500000020B461446DB1844EB04045B1844EB02
:102560000204E000F863F86B40EA5370F863DB00A4
:10257000BB63D7E90E3413EB010844EB0209404674
:102580004946FB6F5B684FF00004DB1844EB040422
:102590001A462346FDF794FE03460C461A46814B25
:1025A000A3FB02135B09642101FB03F3D31ADB00D5
:1025B00032337C4AA2FB03235B095B0003F4F8730C
:1025C0001E44D7F8803019464FF000020B461446DF
:1025D000DB1844EB04045B1844EB0204E00078636E
:1025E000786B40EA53707863DB003B63D7E90C34C7
:1025F00013EB010844EB020940464946FB6F5B6858
:102600004FF00004DB1844EB04041A462346FDF7A0
:1026100057FE03460C461A46624BA3FB02135B09A6
:10262000642101FB03F3D31ADB0032335D4AA2FBC2
:1026300003235B0903F007033344AB6040E2FFF779
:10264000BDF8C7F88000FB6F1A683A67D7F880308A
:1026500019464FF000020B461446DB1844EB040405
:102660005B1844EB0204E000F862F86A40EA537039
:10267000F862DB00BB62D7E90A345D1844EB02065E
:1026800028463146FB6F5B684FF00004DB1844EBD3
:1026900004041A462346FDF713FE03460C461A4669
:1026A000404BA3FB02235B091E01D7F8803019467B
:1026B0004FF000020B461446DB1844EB04045B1891
:1026C00044EB02044FEAC40B4BEA537B4FEAC30AC4
:1026D00053465C4613EB010A44EB020B5046594645
:1026E000FB6F5B684FF00004DB1844EB04041A46F0
:1026F0002346FDF7E5FD03460C461A46294BA3FB8E
:1027000002135B09642101FB03F3D31ADB003233AC
:10271000244AA2FB03235B095B0003F4F8731E4405
:10272000D7F8803019464FF000020B461446DB18EC
:1027300044EB04045B1844EB02044FEAC40949EA81
:1027400053794FEAC30843464C4613EB010844EB68
:10275000020940464946FB6F5B684FF00004DB18F6
:1027600044EB04041A462346FDF7AAFD03460C4633
:102770001A460C4BA3FB02135B09642101FB03F314
:10278000D31ADB003233074AA2FB03235B0903F0B1
:10279000070333443A6F936092E100BF0010014099
:1027A000001401401F85EB51FB6F1A68C14B9A4220
:1027B00005D0FB6F1A68C04B9A4240F0BF80FFF70C
:1027C00011F8C7F88000FB6F1E68D7F880301946F3
:1027D0004FF000020B461446DB1844EB04045B1870
:1027E00044EB0204E0007862786A40EA5370786251
:1027F000DB003B62D7E9083413EB010844EB020924
:1028000040464946FB6F5B684FF00004A200FA6542
:10281000FA6D42EA9372FA659B00BB65D7E916230D
:10282000FDF74EFD03460C461A46A44BA3FB0223BC
:102830005B091D01D7F8803019464FF000020B46A6
:102840001446DB1844EB04045B1844EB0204E0007C
:10285000F861F86940EA5370F861DB00BB61D7E9C1
:10286000063413EB010844EB020940464946FB6F6E
:102870005B684FF00004A2007A657A6D42EA9372B9
:102880007A659B003B65D7E91423FDF719FD0346E4
:102890000C461A46894BA3FB02135B09642101FB1A
:1028A00003F3D31A1B013233844AA2FB03235B09CF
:1028B00003F0F0031D44D7F8803019464FF00002B2
:1028C0000B461446DB1844EB04045B1844EB02048B
:1028D000E0007861786940EA53707861DB003B6121
:1028E000D7E9043413EB010844EB0209404649469A
:1028F000FB6F5B684FF00004A200FA64FA6C42EAD6
:102900009372FA649B00BB64D7E91223FDF7D8FCED
:1029100003460C461A46694BA3FB02135B0964216C
:1029200001FB03F3D31A1B013233644AA2FB0323D6
:102930005B0903F00F032B44B360C1E0FEF73EFFD9
:10294000C7F88000FB6F1B68BB65D7F8803019465D
:102950004FF000020B461446DB1844EB04045B18EE
:1029600044EB0204E60046EA5376DD002B4634468B
:102970005D1844EB020628463146FB6F5B684FF05A
:102980000004A5007D677D6F45EA93757D679C0017
:102990003C67D7E91C23FDF793FC03460C461A4617
:1029A000464BA3FB02135B091D01D7F88030194683
:1029B0004FF000020B461446DB1844EB04045B188E
:1029C00044EB0204E000F860F86840EA5370F860F5
:1029D000D800B860D7E9023413EB010844EB0209D0
:1029E00040464946FB6F5B684FF00004A600FE6658
:1029F000FE6E46EA9376FE669C00BC66D7E91A2313
:102A0000FDF75EFC03460C461A462C4BA3FB021353
:102A10005B09642101FB03F3D31A1B013233274AFC
:102A2000A2FB03135B0903F0F0031D44D7F88030C9
:102A300019464FF000020B461446DB1844EB040421
:102A40005B1844EB0204E0007860786840EA537059
:102A50007860D800386097E8180013EB010844EB61
:102A6000020940464946FB6F5B684FF00004A60030
:102A70007E667E6E46EA93767E669C003C66D7E96B
:102A80001823FDF71DFC03460C461A460B4BA3FB0F
:102A900002135B09642101FB03F3D31A1B013233D8
:102AA000064AA2FB03135B0903F00F032B44BA6D24
:102AB000936005E000100140001401401F85EB51B8
:102AC00000BF8C37BD46BDE8F08F00BFDFF834D0C3
:102AD000002103E00C4B5B58435004310B480C4B76
:102AE00042189A42F6D30B4A02E0002342F8043B14
:102AF000094B9A42F9D3FEF709F902F067FDFDF799
:102B0000A5FE7047008000205468000800000020E7
:102B10007400002074000020A4020020FEE70000E2
:102B200080B58AB000AF07F1140300221A605A6022
:102B30009A60DA601A6100233B61374A364B1B6B9F
:102B400043F004031363344B1B6B03F004033B613A
:102B50003B690023FB60304A2F4B1B6B43F0800323
:102B600013632D4B1B6B03F08003FB60FB6800239A
:102B7000BB60294A284B1B6B43F001031363264BB0
:102B80001B6B03F00103BB60BB6800237B60224A20
:102B9000214B1B6B43F0020313631F4B1B6B03F0B2
:102BA00002037B607B68002202211C48FEF70AFCBE
:102BB000002246F202011A48FEF704FC02237B6160
:102BC0000123BB610023FB6100233B6207F1140377
:102BD00019461248FEF784FA46F202037B6101238C
:102BE000BB610123FB6100233B6207F1140319461B
:102BF0000B48FEF775FA4FF400437B61094BBB614C
:102C00000123FB6107F1140319460548FEF768FA32
:102C100000BF2837BD4680BD003802400008024092
:102C2000000402400000211080B500AFFFF778FFDC
:102C300000F004F80023184680BD000080B500AF06
:102C4000002202210D48FEF7BDFB00224FF4804117
:102C50000A48FEF7B7FB0A2000F012F80122022111
:102C60000648FEF7AFFB0A2000F00AF801224FF4F5
:102C700080410248FEF7A6FB00BF80BD0004024071
:102C800080B582B000AF78607868FEF7C7F800BF03
:102C90000837BD4680BD000080B588B000AF7860C1
:102CA0000023BB60124A124B1B6B43F002031363F9
:102CB0000F4B1B6B03F00203BB60BB684FF4004378
:102CC000FB600C4B3B6100237B6107F10C03194651
:102CD0000948FEF705FA002200212820FEF7BBF97B
:102CE0002820FEF7D4F900BF2037BD4680BD00BFC5
:102CF00000380240000021100004024080B582B07C
:102D000000AF0346FB71FB79012B08D100220121A2
:102D10002820FEF7A0F92820FEF7B9F902E02820C4
:102D2000FEF7C3F900BF0837BD4680BD80B588B047
:102D300002AFF860B9601346FB80002202212248EE
:102D4000FEF740FBFB68002B0CD1FA884FF47A7336
:102D500000931346BA681D491D48FEF7FCFF034661
:102D6000FB7521E0BB68002B12D1FA884FF47A730F
:102D700000931346154AF9681548FEF7ECFF034621
:102D8000FB75FB881A460021104802F052FC0BE04C
:102D9000FA884FF47A7300931346BA68F9680C48BE
:102DA000FEF7D9FF0346FB75FB7D002B02D097F998
:102DB000173005E0012202210348FEF703FB002340
:102DC00018461837BD4680BD000802409800002014
:102DD0002002002080B58AB000AF786000233B61FC
:102DE000324A324B1B6C43F4804313642F4B1B6CF1
:102DF00003F480433B613B690023FB602B4A2B4B70
:102E00001B6B43F004031363284B1B6B03F0040399
:102E1000FB60FB680023BB60244A244B1B6B43F020
:102E200002031363214B1B6B03F00203BB60BB68FF
:102E300007F1140300221A605A609A60DA601A617E
:102E400004237B610223BB610023FB6103233B62FC
:102E500005237B6207F1140319461548FEF740F974
:102E600008237B610223BB610023FB6103233B62D8
:102E700005237B6207F1140319460D48FEF730F96C
:102E80004FF480637B610223BB610023FB6103235A
:102E90003B6205237B6207F1140319460548FEF7E0
:102EA0001FF900BF2837BD4680BD00BF0038024073
:102EB000000802400004024080B584B000AF786092
:102EC0000023FB73FFF7BAFE0120FFF7D9FE044889
:102ED000FDF7FAFD97F90F3018461037BD4680BD53
:102EE0002002002080B584B000AF03463960FB713A
:102EF0000023FB73FB79032B0DD13B68BB60BB68E0
:102F00001868BB685968BB681B891A46FFF70EFF33
:102F10000346FB7302E0FF23FB7300BF97F90F30FA
:102F200018461037BD4680BD80B483B000AF002383
:102F3000FB7197F9073018460C37BD465DF8047BE6
:102F4000704780B485B000AFF860B9607A607B6884
:102F5000002B10D0BB681A78FB681A70FB6801332D
:102F6000FB60BB680133BB607B68013B7B607B68B7
:102F7000002BEFD100E000BF1437BD465DF8047BA5
:102F8000704780B485B000AFF8600B467A60FB7282
:102F90007B68002B0CD0FB68FA7A1A70FB6801334F
:102FA000FB607B68013B7B607B68002BF3D100E01A
:102FB00000BF1437BD465DF8047B704780B485B010
:102FC00000AF78600023FB8105E0FB890133FB81C2
:102FD0007B6801337B607B681B78002BF5D1FB8914
:102FE00018461437BD465DF8047B704780B400AFC7
:102FF000054BDB78DBB20133DAB2034BDA7000BF8A
:10300000BD465DF8047B70477802002080B582B031
:1030100000AF0023FB71144B00229A700120FFF7D0
:103020006DFE3B46194641F2700001F090FA0346EE
:10303000FB7197F90730002B0FD13B6843F0020377
:103040003B603B68194641F2700001F08EFA03467E
:10305000FB7197F90730002B00E000BF97F90730AC
:1030600018460837BD4680BD7802002080B483B082
:1030700000AF03463A60FB710B46BB8000BF0C37C4
:10308000BD465DF8047B704780B582B000AF002379
:10309000FB71144B9B78DBB2002B02D097F9073001
:1030A0001CE0104B5B78DBB2002B0CD10D4B1B7876
:1030B000DBB2002B07D001F091F80346FB7197F9C2
:1030C0000730002B07D1074B5B78DBB20133DAB254
:1030D000044B5A7000E000BF97F9073018460837D4
:1030E000BD4680BD7802002080B400AF084B5B78FD
:1030F000DBB2002B06D0064B5B78DBB2013BDAB2C9
:10310000034B5A7000231846BD465DF8047B704798
:103110007802002080B582B000AF0023FB71114B14
:103120005B78DBB2002B06D00E4B5B78DBB2013B49
:10313000DAB20C4B5A700B4B5B78DBB2002B0BD125
:10314000084B1B78DBB2002B06D000F0E5FF0346EE
:10315000FB7197F90730002B97F9073018460837AD
:10316000BD4680BD7802002080B582B000AF786097
:10317000282200210748FFF704FF0748FFF78CFDCE
:103180000649032000F0C8FA002318460837BD4658
:1031900080BD00BF78020020ED2F00086D300008D0
:1031A00080B588B000AF3A601A460346FB710B4603
:1031B000BB711346BB80FF23FB77BB7903F07F0312
:1031C000DBB27B76FB793B7608237B83BB6A002BE3
:1031D00009D07B8B9AB2398EBB8D0B449BB21344C2
:1031E0009BB27B8305E07B8B9AB2BB8813449BB276
:1031F0007B83FFF749FF0346FB7797F91F30002BCE
:1032000040F0E68000233B610023FB8100237B61CB
:103210007B8BBB83FA797B6913437B61BB791A0291
:103220007B6913437B61BB8B1A047B6913437B610E
:103230007B69194641F28C0001F097F90346FB7750
:1032400097F91F30002B40F0B78000237B617B692A
:1032500043F002037B617B69194641F2780001F07B
:1032600084F90346FB7797F91F30002B40F0A680C6
:1032700000233B610023FB812EE007F11403194674
:1032800041F2780001F063F90346FB7797F91F30AC
:10329000002B27D1FB899BB2B3F5FA7F03D3FB89BF
:1032A0000120FFF7EDFC7B6903F00203002B0ED138
:1032B00007F1100319464A4801F049F90346FB7724
:1032C00097F91F30002B0FD000233B617DE0FB8975
:1032D0009BB201339BB2FB81FB899BB2B3F57A7F32
:1032E000CBD302E000BF00E000BF3B69002B55D00C
:1032F0003B69BB607B8B9BB27B83BB6807F118018A
:103300000822184601F0AEF90346FB7797F91F3003
:10331000002B55D1BB680833BB603B68002B0FD036
:10332000BB68BA883968184601F09CF90346FB77F8
:1033300097F91F30002B45D1BA88BB681344BB6096
:10334000BB6A002B16D03A8EBB88D31A1A46BB68CC
:103350001344BB60BB68BA8DB96A184601F082F9A4
:103360000346FB7797F91F30002B2DD1BA8DBB6830
:103370001344BB603B699B007B617B6943F00203A4
:103380007B617B69194641F26C0001F0EEF803465F
:10339000FB7797F91F30002B07D016E0FFF7BAFE36
:1033A0000346FB77FD23FB7713E0FFF7B3FE0346ED
:1033B000FB7797F91F300EE000BF06E000BF04E086
:1033C00000BF02E000BF00E000BFFFF78DFE00E09D
:1033D00000BF97F91F3018462037BD4680BD00BF9B
:1033E0000004150080B586B000AF0023FB7507F11F
:1033F0000C03194641F2700001F0A9F80346FB7571
:1034000097F91730002B40F0F880FB6803F00103B8
:10341000002B00F0EF800020FFF770FCFB6823F02A
:103420000103FB60FB68194641F2700001F09DF852
:103430000346FB7597F91730002B40F0E080734B83
:1034400001229A70FB689B089BB2C3F30B03BB82FB
:10345000BB8A002B00F0CB8000237B603B1D19460C
:1034600041F2840001F073F80346FB7597F91730B9
:10347000002B03D00120FFF741FCC1E07B68634AC9
:103480005360BB8A614A93607B6807F1080104229C
:10349000184601F08BF80346FB757B899BB27B8154
:1034A00097F91730002B03D00120FFF727FCA7E086
:1034B0007B899BB2BA8A9A420BD0BB8A7A8992B234
:1034C0009B1A042B05DD0120FFF718FCFA23FB757E
:1034D00096E03B7ADBB2012B10D14C4BDB68002B22
:1034E00078D07B897B82494BDB687A7AD0B27A8A42
:1034F000083A91B27A68083298476BE03B7ADBB2BF
:10350000022B10D1414B1B69002B63D07B897B823E
:103510003E4B1B697A7AD0B27A8A083A91B27A68BD
:103520000832984756E03B7ADBB2042B10D1374B78
:103530005B69002B4ED07B897B82344B5B697A7A46
:10354000D0B27A8A083A91B27A680832984741E054
:103550003B7ADBB2062B10D12C4B1B6A002B39D0E7
:103560007B897B82294B1B6A7A7AD0B27A8A083AA5
:1035700091B27A68083298472CE03B7ADBB2072B8D
:1035800010D1224B9B69002B24D07B897B821F4B5F
:103590009B697A7AD0B27A8A083A91B27A6808320C
:1035A000984717E03B7ADBB2052B10D1174B5B6ACB
:1035B000002B0FD07B897B82144B5B6A7A7AD0B266
:1035C0007A8A083A91B27A680832984702E0FA2378
:1035D000FB7515E00D4B9B78DBB2002B10D0FFF78D
:1035E00015FD0346FB7597F91730002B08E0FE2305
:1035F000FB7505E0F423FB7502E000BF00E000BFAF
:1036000097F9173018461837BD4680BD780200205C
:1036100080B582B000AF0023FB710EE00C4BDB786D
:10362000DBB2013BDAB20A4BDA70FFF7DBFE03468E
:10363000FB7197F90730002BF7D1054BDB78DBB234
:10364000002BEBD197F9073018460837BD4680BDEF
:103650007802002080B586B000AFF860B9601146EE
:103660001A460B46FB8013467B710023FB75FB68F3
:10367000002B05D0BB68002B02D0FB88002B0AD1A1
:103680007B79002B04D0FFF7C1FC0346FB753BE0C0
:10369000F423FB7538E0FA881E4B9B689A4202D9E6
:1036A000F423FB7530E01B4B5A68FB689A4209D83B
:1036B000FA88FB681A44174B5968164B9B680B44F1
:1036C0009A4202D9F423FB751EE0FB881A46B968BA
:1036D000F86800F06BFF0346FB7597F91730002B75
:1036E00011D10C4B5A680B4B9B681A44F988FB6844
:1036F0000B449A4202D07B79002B05D0FFF786FC61
:103700000346FB7500E000BF97F9173018461837DD
:10371000BD4680BD7802002080B485B000AF03466E
:103720003960FB710023FB73FB79013B062B2DD81D
:1037300001A252F823F000BF5D370008553700089A
:103740006D370008653700088537000875370008B1
:103750007D370008134A3B6813611AE0114A3B6841
:10376000D36016E00F4A3B68536112E00D4A3B6894
:10377000D3610EE00B4A3B6813620AE0094A3B68DA
:10378000936106E0074A3B68536202E0F423FB734F
:1037900000BF97F90F3018461437BD465DF8047B1B
:1037A000704700BF7802002080B5AAB000AF034682
:1037B0003A60FB710B46BB80FB792C2B17D107F1CC
:1037C0009C01002304223868FFF744FF0346002BC6
:1037D00040F06281B24B1B68002B00F05D81B04B62
:1037E0001B6807F19C0211462C20984754E1FB7995
:1037F0001B2B17D107F19401002308223868FFF72B
:1038000029FF0346002B40F04781A54B1B68002B86
:1038100000F04281A24B1B6807F1940211461B2065
:10382000984739E1FB79062B17D107F108010123ED
:1038300030223868FFF70EFF0346002B40F02C8142
:10384000974B1B68002B00F02781954B1B6807F1F5
:1038500008021146062098471EE1FB790E2B00F066
:103860001B81FB79322B17D107F180010023142231
:103870003868FFF7EFFE0346002B40F00D81884BC0
:103880001B68002B00F00881854B1B6807F1800244
:10389000114632209847FFE0FB792F2B1ED107F10C
:1038A0000803642200211846FFF76BFB07F10801AB
:1038B000002364223868FFF7CDFE0346002B40F05A
:1038C000EB80774B1B68002B00F0E680744B1B6885
:1038D00007F1080211462F209847DDE0FB79342BD1
:1038E00015D107F17C01002304223868FFF7B2FEEE
:1038F0000346002B40F0D080694B1B68002B00F082
:10390000CB80674B1B68002134209847C4E0FB79CB
:10391000112B1ED1634B00221A7007F1780100238E
:1039200004223868FFF796FE0346002B40F0B4806F
:1039300097F878205C4B1A70594B1B68002B00F0ED
:10394000AB80574B1B6807F178021146112098474E
:10395000A2E0FB79132B17D107F1080100232C22D9
:103960003868FFF777FE0346002B40F095804C4BFC
:103970001B68002B00F09080494B1B6807F1080280
:1039800011461320984787E0FB79042B15D107F1E6
:10399000A001002304223868FFF75CFE0346002BD9
:1039A0007AD13F4B1B68002B76D03D4B1B6807F14B
:1039B000A0021146042098476EE0FB79652B15D1D3
:1039C00007F1A001002304223868FFF743FE0346F5
:1039D000002B61D1324B1B68002B5DD0304B1B6834
:1039E00007F1A00211466520984755E0FB79092BA5
:1039F00015D107F10801012364223868FFF72AFE78
:103A00000346002B48D1264B1B68002B44D0244B87
:103A10001B6807F108021146092098473CE0FB7932
:103A20002A2B15D107F17401012304223868FFF70E
:103A300011FE0346002B2FD1194B1B68002B2BD0F6
:103A4000174B1B6807F1740211462A20984723E0A0
:103A5000FB79202B20D107F16C0100230822386864
:103A6000FFF7F8FD0346002B16D13B6803F1080071
:103A7000F96EB7F870200123FFF7ECFD0346002B29
:103A80000AD1074B1B68002B06D0054B1B6807F1BA
:103A90006C0211462020984700BFA837BD4680BD64
:103AA000C8010020C5010020C401002080B590B0ED
:103AB00002AF7860002387F837300123FB727B6800
:103AC000002B03D1F42387F8373059E07B681B685B
:103AD0002E4A13602E4B00221A7007F10B03184672
:103AE00000F0A8FE034687F8373097F93730002BEF
:103AF00045D10020FFF738FB034687F8373097F9A8
:103B00003730002B36D123490120FFF705FE07F19E
:103B10000C03184600F0F0FD034687F837303B7C75
:103B200019467B7C1A46BB7C1846BB8D0093034626
:103B3000194801F087FD07F10C0303F1160207F1A4
:103B40000C030A331946154801F07CFDFB7C19462D
:103B50003B7D1A467B7D124801F074FD042305224B
:103B60001321104801F06EFD0F4A1049104801F072
:103B700069FD05E000BF002000F0BCFE00E000BFD2
:103B800097F9373018463837BD4680BDC801002048
:103B9000C5010020A9370008D4650008FC650008AD
:103BA000186600083C660008546600086066000855
:103BB0006C66000880B582B000AF7860FFF728FD22
:103BC000034618460837BD4680BD80B586B002AFB3
:103BD000F8607B600B46FB721346BB72BA7AF97AC7
:103BE000002301933B8B00937B68F86800F005F895
:103BF000034618461037BD4680BD80B5AAB004AF55
:103C0000F8607B600B46FB721346BB72002387F89B
:103C10009730BB7A012B53D07B68002B03D1F42360
:103C200087F8973013E1BB7A022B49D17868FFF708
:103C3000C5F90346402B43D1002387F896307B68B3
:103C4000C7F8903038E097F89630D7F890201344B2
:103C50001B782F2B27D997F89630D7F8902013444C
:103C60001B78392B07D997F89630D7F89020134452
:103C70001B78402B17D997F89630D7F8902013442B
:103C80001B78462B07D997F89630D7F89020134425
:103C90001B78602B07D997F89630D7F890201344FB
:103CA0001B78662B03D9F42387F89730CFE097F879
:103CB0009630013387F8963097F896303F2BC2D96B
:103CC000FB7A002B02D0FB7A202B03D9F42387F850
:103CD0009730BCE0B7F8A030002B03D0B7F8A03085
:103CE0000E2B07D9B7F8A030FF2B03D0F42387F8A9
:103CF0009730ACE0FA7A07F114034633F9681846B6
:103D0000FFF71FF9FB7A07F198021344002203F82A
:103D10003E2CB7F8A030A7F8583097F8A430002B05
:103D200014BF01230023DBB287F87B3007F11403B3
:103D3000C7F88C30D7F88C30BA7A83F84120BB7A38
:103D4000032B43D17B68C7F88830D7F88C30C7F88D
:103D50008430D7F888301B78013BDAB2D7F884304A
:103D60001A70D7F884301B78032B03D9F42387F813
:103D700097306CE0D7F888305B78013BDAB2D7F83F
:103D800084305A70D7F884305B780A2B08D0D7F883
:103D900084305B781A2B03D0F42387F8973056E0F1
:103DA000D7F88430981CD7F88830991CD7F8883019
:103DB0005B781A46FFF7C5F8D7F888305B781A4663
:103DC000D7F88430134400229A7030E0BB7A022B7B
:103DD0001BD17868FFF7F2F80346A7F88230B7F8EE
:103DE0008230002B03D0B7F88230402B03D9F42364
:103DF00087F897302BE0D7F88C00B7F88230013382
:103E00001A467968FFF79DF811E0BB7A042B07D1B9
:103E1000D7F88C303E2279681846FFF792F806E012
:103E2000BB7A012B03D0F42387F897300FE007F11A
:103E300014020023029300230193002300936C23B8
:103E400028210120FFF7ACF9034687F8973097F94E
:103E5000973018469837BD4680BD80B400AF002328
:103E60001846BD465DF8047B7047000080B588B0F9
:103E700004AF0346FB710023FB731A4B1B78DBB2C4
:103E8000002B24D1FB79002B02D0FB790E2B02D919
:103E9000FB79FF2B18D1FB793B7207F10802002355
:103EA0000293002301930023009304231021012097
:103EB000FFF776F90346FB7397F90F30002B09D112
:103EC000084B01221A7005E0F123FB7303E0F22393
:103ED000FB7300E000BF97F90F3018461037BD465E
:103EE00080BD00BFC501002080B588B004AF034687
:103EF000FB710023FB73FB793B7207F1080200237F
:103F00000293002301930023009304231221012034
:103F1000FFF746F90346FB7397F90F301846103741
:103F2000BD4680BD80B400AF034B1B78DBB21846A2
:103F3000BD465DF8047B7047C401002080B586B0A3
:103F400000AF78600023FB757B683B613B6943F4FD
:103F500080733B6139694FF4A55000F006FB3B6963
:103F6000002B13D00023FB6007F10C0319464FF41C
:103F7000A55000F0ECFA0346FB7597F91730002BBB
:103F8000E8D1FA683B699A4202D0E3E700BF00E05B
:103F900000BF002318461837BD4680BD80B582B0EB
:103FA00000AF00233B600023FB713B46194641F202
:103FB000084000F0CCFA0346FB7197F90730002B5C
:103FC0002BD13B6843F480733B603B68194641F258
:103FD000084000F0CAFA0346FB7197F90730002B3E
:103FE0001DD13B4619464FF4D05000F0B0FA0346BD
:103FF000FB7197F90730002B13D13B6843F48033F2
:104000003B603B6819464FF4D05000F0AEFA0346CF
:10401000FB7197F90730002B04E000BF02E000BFFE
:1040200000E000BF97F9073018460837BD4680BD4D
:1040300080B582B000AF314B1B68002B57D12F49A0
:104040004FF4805000F083FA0346002B04D02B4B32
:1040500000221A6000234CE03B1D194641F2F43067
:1040600000F075FA0346002B04D0244B00221A609E
:1040700000233EE0214B1B68214A934206D17B6816
:10408000012B28D01D4B1F4A1A6024E01B4B1B68D4
:104090001D4A93420DD17B68032B1CD07B68042BF7
:1040A00003D1164B194A1A6015E0144B184A1A60CE
:1040B00011E0124B1B68174A93420CD10F494FF481
:1040C0006C1000F044FA0346002B04D00B4B002286
:1040D0001A6000230DE0094B1B6823F47023074A84
:1040E0001360064B1B6843F4A023044A1360034B80
:1040F0001B6818460837BD4680BD00BFCC010020B4
:10410000A0021000A1021000B0021000B1021000C5
:10411000B2021000F000100080B582B000AF0023A2
:10412000FB713B461946102000F011FA0346FB7163
:1041300097F90730002B44D13B6803F00103002BB3
:1041400000D0EEE700BF3B461946012000F0FFF922
:104150000346FB7197F90730002B34D13B6803F01D
:104160000203002B0ED03B6823F002033B603B6848
:104170001946012000F0F9F90346FB7197F9073061
:10418000002B22D13B4619460B2000F0E0F90346F4
:10419000FB7197F90730002B19D13B6803F001033D
:1041A000002B15D03B6823F001033B603B681946A8
:1041B0000B2000F0DAF90346FB7197F90730002B6A
:1041C00006E000BF04E000BF02E000BF00E000BF67
:1041D00097F9073018460837BD4680BD80B584B0D2
:1041E00000AF0023FB7300237B6000233B600023B0
:1041F000BB603B1D19460B2000F0A9F90346FB7379
:1042000097F90F30002B4ED17B6803F00103002B90
:104210000CD17B6843F0010319460B2000F0A5F98F
:104220000346FB7397F90F30002B3ED13B1D194617
:10423000012000F08CF90346FB7397F90F30002B37
:1042400035D17B6803F00203002B0CD17B6843F06F
:1042500002031946012000F088F90346FB7397F921
:104260000F30002B25D13B4619460F2000F06FF987
:104270000346FB7397F90F30002B1CD13B6803F00A
:104280000403002B0BD10220FEF7FAFCBB680133BC
:10429000BB60BB68042BE6D9FC23FB730CE000BFBA
:1042A00000F03AF908E000BF06E000BF04E000BFFC
:1042B00002E000BF00E000BF97F90F30184610374A
:1042C000BD4680BD80B588B000AF0346FB710023BA
:1042D000FB770023BB6100237B6100233B613F4BE5
:1042E000FB600023BB6141F2140000F024F9B861C7
:1042F000BB69002B03DB0120FEF7C2FCF3E700BF24
:10430000374800F018F9B861BB6903F00103BB61DD
:10431000BB69002B19D10023BB6112E00120FEF71D
:10432000AFFC4FF00C1000F006F9B8617B69013367
:104330007B617B6944F62062934202D9FB23FB77C1
:1043400045E0BB69274A9342E8D1FB79022B0AD1A9
:104350002549264800F009F94FF4801141F28C00FC
:1043600000F003F91CE0FB79032B09D11E491F481B
:1043700000F0FBF8002141F28C0000F0F6F80FE0AD
:10438000FB79042B07D180233B61F96841F28C0053
:1043900000F0EBF804E0F96841F28C0000F0E5F879
:1043A000FFF746FE0346C3F30B03B3F5687F06D35E
:1043B0003B6943F002031846FFF7C0FD02E038698D
:1043C000FFF7BCFD0A494FF00C1000F0CEF897F94A
:1043D0001F3018462037BD4680BD00BF541354130C
:1043E000BC0702009ED0AD107DD51C3CAC0702007E
:1043F000612F52EF80B588B000AF0346FB710023F8
:10440000FB770023BB6100237B6144F620633B61A3
:1044100041F28C03FB60194BBB60FB79022B02D08D
:10442000FB79032B16D1164BFB60164BBB6011E0DA
:104430000220FEF725FCFB68184600F07CF8B86106
:104440007B6901337B617A693B699A4202D3FB2322
:10445000FB770CE0BA68BB699A42E9D1BB68074AAE
:10446000934204D1002141F28C0000F07EF897F9CC
:104470001F3018462037BD4680BD00BF3626530288
:10448000AC070200C3C15DD780B582B000AF002386
:104490003B603B4619464FF4A05000F058F80346E5
:1044A000FB7197F90730002B0FD13B6823F4806331
:1044B0003B603B6819464FF4A05000F056F80346A5
:1044C000FB7197F90730002B00E000BF97F9073028
:1044D00018460837BD4680BD80B584B000AF78600F
:1044E0000023FB737868FEF7E7FC0346FB7397F93C
:1044F0000F3018461037BD4680BD80B582B000AF82
:104500000023FB71FEF710FD0346FB7197F907309E
:1045100018460837BD4680BD80B582B000AF002385
:10452000FB7100F0A3FE0346FB7197F907301846B4
:104530000837BD4680BD80B582B000AF786078682E
:1045400000F004FF034618460837BD4680BD80B51D
:1045500082B000AF786039603968786800F005FF94
:10456000034618460837BD4680BD80B582B000AF0F
:10457000786039603968786800F011FF03461846A2
:104580000837BD4680BD80B584B000AFF860B96023
:104590001346FB80FB881A46B968F86800F019FFDB
:1045A000034618461037BD4680BD000080B586B072
:1045B00000AFF860B9607A60204B1B88083B3B82F3
:1045C00000237B610023FB743A8A7B689A420FD3F5
:1045D000BA687B6913447A6892B21946F868FFF7A3
:1045E000D2FF0346DAB2FB7C1344DBB2FB741FE05C
:1045F000BA687B6913443A8A1946F868FFF7C3FF23
:104600000346DAB2FB7C1344DBB2FB7497F9133038
:10461000002B0CD13B8A7A68D31A7B603B8A7A697B
:1046200013447B613B8AFA681344FB60CCE700BF0C
:1046300097F9133018461837BD4680BD0C0000208E
:1046400080B584B000AFF860B9601346FB80FB888A
:104650001A46B968F86800F0DAFE034618461037C3
:10466000BD4680BD80B586B000AFF860B9607A60A5
:10467000204B1B88083B3B8200237B610023FB749B
:104680003A8A7B689A420FD3BA687B6913447A6886
:1046900092B21946F868FFF7D3FF0346DAB2FB7C03
:1046A0001344DBB2FB741FE0BA687B6913443A8A97
:1046B0001946F868FFF7C4FF0346DAB2FB7C1344DF
:1046C000DBB2FB7497F91330002B0CD13B8A7A686C
:1046D000D31A7B603B8A7A6913447B613B8AFA6810
:1046E0001344FB60CCE700BF97F913301846183726
:1046F000BD4680BD0C00002080B588B000AF78605A
:1047000000237B610023FB7707F10C0300221A6072
:104710005A607B68002B00F0858028220021786891
:10472000FEF72FFC07F1140319464148FFF70FFF6E
:104730000346FB7797F91F30002B73D17B69002B61
:104740006ED07B6943F4403307F10C010822184610
:10475000FFF72CFF0346FB7797F91F30002B61D141
:104760003B697B617B699BB27B617B69002B54D089
:104770007B6943F44033282279681846FFF716FF17
:104780000346FB7797F91F30002B4BD17B681B79D1
:104790001B021AB27B685B791B011BB2DBB21BB236
:1047A00013431AB27B689B791BB203F00F031BB251
:1047B00013431BB2BB8341F254337B837B68DB79A9
:1047C0001B021AB27B681B7A1B011BB2DBB21BB245
:1047D00013431AB27B685B7A1BB203F00F031BB260
:1047E00013431BB23B83BB8B002B05D03B8B002BB1
:1047F00002D03B8B002B02D1F423FB7712E07A8BA3
:104800003B8B9A4202D2F323FB770BE07A8BBB8B74
:104810009A4207D9F323FB7704E0F423FB7701E006
:10482000F423FB7797F91F3018462037BD4680BD2B
:1048300008000C0080B584B000AF78600023FB73E3
:104840007B68002B0BD07B681B78BB73BB7B002B7A
:1048500002D0BB7B042B04D90123BB7301E00123ED
:10486000BB730020FFF738FE0346FB7397F90F3048
:10487000002B35D1FFF7DCFB034619461C4800F03E
:10488000E1FE00F005FDBB7B1846FFF71BFD03466C
:10489000FB7397F90F30002B1AD1BB7B1846FFF73B
:1048A000A9FD0346FB7397F90F30002B12D1BB7B98
:1048B000022B16D0BB7B032B13D0FFF76FFB0346F5
:1048C000FB7397F90F30002B06D197F90F300AE0F0
:1048D00000BF02E000BF00E000BFFFF70EFE00E0F7
:1048E00000BF97F90F3018461037BD4680BD00BF96
:1048F0008466000880B584B000AF7860FFF7C4FD1F
:104900000346FB7397F90F30002B13D1002000F002
:1049100009FE0346FB7397F90F30002B0CD1FFF70C
:10492000ECFD0346FB7397F90F30002B06D100F026
:10493000FFFC04E000BF02E000BF00E000BF97F909
:104940000F3018461037BD4680BD80B586B000AF29
:1049500078600B467B800023FB607B683B617B8833
:10496000BB8207F10C0319460320FEF7BBFA03468E
:1049700018461837BD4680BD80B586B000AF786058
:104980000B467B807B68FB6000233B617B88BB829E
:1049900007F10C0319460320FEF7A4FA0346184654
:1049A0001837BD4680BD000080B483B000AF034619
:1049B0000A46FB711346BB71FB795A00BB79534021
:1049C000034AD35C18460C37BD465DF8047B70473C
:1049D000AC66000880B584B000AF0346B9607A6069
:1049E000FB730AE0BB685A1CBA601A78FB7B11465D
:1049F0001846FFF7D9FF0346FB737B685A1E7A609F
:104A0000002BEFD1FB7B18461037BD4680BD000060
:104A100090B589B000AFB9607A603B600346FB7324
:104A20000523FB770123BB77FB7B3B75FB7BC13BFE
:104A30000E2B00F2CC8001A252F823F0F54A0008B8
:104A4000F54A0008514B0008954A0008BF4A000883
:104A5000D14A00081F4B00081F4B0008954B000867
:104A6000794A0008CF4B0008CF4B0008CF4B000815
:104A7000CF4B0008E34A0008BB681B0CDBB27B7518
:104A8000BB681B0ADBB2BB75BB68DBB2FB750523D9
:104A9000FB779FE0BB681B0ADBB27B7597F8303071
:104AA000002B04D07B7D63F07F03DBB27B75BB689A
:104AB000DBB2BB750023FB750523FB778AE000237F
:104AC0007B750023BB750023FB750523FB7781E015
:104AD00000237B750023BB750023FB750523FB7743
:104AE00078E0FF237B75FF23BB75FF23FB75052350
:104AF000FB776FE0BB681B0CDBB27B75BB681B0AE6
:104B0000DBB2BB75BB68DBB2FB753B681B0ADBB273
:104B10003B763B68DBB27B760723FB775AE0BB68CA
:104B20001B0CDBB27B75BB681B0ADBB2BB75BB68B9
:104B3000DBB2FB753B681B0CDBB23B763B681B0AA8
:104B4000DBB27B763B68DBB2BB760823FB7741E0C8
:104B5000BB681B0ADBB27B7597F83030002B04D0A2
:104B60007B7D63F07F03DBB27B75BB68DBB2BB751B
:104B70007B681B0EDBB2FB757B681B0CDBB23B76E4
:104B80007B681B0ADBB27B767B68DBB2BB760823D3
:104B9000FB771FE0BB681B0CDBB27B75BB681B0A95
:104BA000DBB2BB75BB68DBB2FB757B681B0EDBB28F
:104BB0003B767B681B0CDBB27B767B681B0ADBB227
:104BC000BB767B68DBB2FB760923FB7702E0002330
:104BD000BB7700BF97F91E30002B27D0164B1B78F0
:104BE000002B13D1FB7F5C1EFB7F013B1A4607F1B4
:104BF000140319467F20FFF7EDFE03465B00DAB28F
:104C000007F12003234403F80C2C02E0FB7F013B57
:104C1000FB77FB7F9AB207F1140311461846FFF7A2
:104C2000ABFE0346002B01D00023BB7797F91E3063
:104C300018462437BD4690BDD001002080B584B011
:104C400000AF0346FB710123BB73194B1B78002B8C
:104C500002D10223FB7301E00323FB73FB7B9AB2B7
:104C600007F1080311461846FFF76FFE0346002BB5
:104C700002D00023BB7314E0FB7B013B07F1100261
:104C8000134413F8083C002B08D1FB7B023B07F1CF
:104C90001002134413F8083CC32B02D00023BB734B
:104CA00000BF97F90E3018461037BD4680BD00BFD3
:104CB000D001002080B584B000AF0346FB71012312
:104CC000FB73FB79CF2B05D0FB79C52B02D0FB7989
:104CD000C62B0BD107F10D0301211846FFF735FE56
:104CE0000346002B02D00023FB7332E00A23BB7380
:104CF00007F10D0301211846FFF727FE0346002B9D
:104D000002D00023FB7324E07B7BFA799A4207D020
:104D100097F90E30DAB2013AD2B2BA73002BE7DC5F
:104D20000A23BB7307F10D0301211846FFF70DFE9F
:104D30000346002B02D00023FB730AE07B7B002B91
:104D400007D097F90E30DAB2013AD2B2BA73002B1B
:104D5000E8DC97F90F3018461037BD4680BD0000DB
:104D600080B586B000AF78600B467B8013467B70C1
:104D700001237B740023BB827B88B3F5005F02D8DC
:104D80007B887B8202E04FF400537B820A23FB8204
:104D900007F10B0301211846FFF7D7FD0346002B4F
:104DA00002D000237B7410E0FB7A1B09DBB203F016
:104DB0000F030F2B08D0B7F916309AB2013A92B20E
:104DC000FA82002BE4D100E000BF97F91130002BEC
:104DD00035D0B7F91630002B02DC00237B742FE0AE
:104DE000B7F914307A6813447A8A11461846FFF7E7
:104DF000ACFD0346002B02D000237B7420E07B78BF
:104E0000002B0FD1114B1B78002B0BD107F10C039A
:104E100002211846FFF799FD0346002B02D000231C
:104E20007B740DE0BA8A7B8A13449BB2BB827B8A77
:104E30007A88D31A7B807B88002B9DD100E000BF4D
:104E400097F9113018461837BD4680BDD0010020B3
:104E500080B586B000AF78600B467B800123FB7481
:104E60000023BB810023FB827B88B3F5005F02D85F
:104E70007B88BB8202E04FF40053BB82F0237B743B
:104E8000B7F91630002B09D17B88B3F5005F02D843
:104E90000323BB740BE00123BB7408E07B88B3F5EC
:104EA000005F02D80323BB7401E00223BB747A7C49
:104EB000BB7C1343DBB27B7407F11103012118465D
:104EC000FFF75AFD0346002B02D00023FB742AE0B3
:104ED000B7F916307A681344BA8A11461846FFF7B4
:104EE0004BFD0346002B02D00023FB741BE0114B4B
:104EF0001B78002B0BD107F10C0302211846FFF79A
:104F00003BFD0346002B02D00023FB740BE0FA8A22
:104F1000BB8A13449BB2FB827A88BB8AD31A7B80FC
:104F20007B88002BA0D197F9133018461837BD465F
:104F300080BD00BFD001002080B586B002AF786090
:104F400039600A23FB730123BB73C9237B730023DE
:104F50003B737B68302B04D8C3237B7301233B73E3
:104F600003E0C9237B7300233B73787B3B7B009377
:104F700004233A687968FFF74BFD0346BB7397F942
:104F80000E30012B09D17B7B1846FFF793FE0346B9
:104F9000BB7397F90E30012B00E000BF97F90E307C
:104FA000012B17D00120FDF76BFE00230093002397
:104FB00000220021CF20FFF72BFDCF20FFF77AFE44
:104FC0000120FDF75DFEFB7B013BFB73FB7B002BB0
:104FD00000D0BEE797F90E3018461037BD4680BDA9
:104FE00080B588B002AFF860B9601346FB800A2331
:104FF000BB75C7237B75FB88012B01D10223FB8086
:10500000FA88787D0023009313460022F968FFF7A1
:10501000FFFC0346FB7597F91730012B1ED17B7DF2
:105020001846FFF747FE0346FB7597F91730012B2B
:1050300016D1FB881946B868FFF70AFF0346FB75CF
:1050400097F91730012B0DD17B7D1846FFF7F6FD40
:105050000346FB7597F91730012B04E000BF02E00F
:1050600000BF00E000BF97F91730012B17D00120D7
:10507000FDF706FE00230093002300220021CF202D
:10508000FFF7C6FCCF20FFF715FE0120FDF7F8FD66
:10509000BB7D013BBB75BB7D002B00D0ABE797F917
:1050A000173018461837BD4680BD80B586B002AFB0
:1050B000786039600A23FB730123BB73CA237B73B7
:1050C00000233B737B68FF2B04D8C4237B7301232D
:1050D0003B7303E0CA237B7300233B73787B3B7BEA
:1050E0000093042300227968FFF792FC0346BB7308
:1050F00097F90E30012B24D17B7B1846FFF7DAFDA0
:105100000346BB7397F90E30012B1CD13A7B07F194
:10511000080304211846FFF723FE0346BB7397F9E3
:105120000E30012B11D13B7A1A467B7A1B021A43AF
:10513000BB7A1B041A43FB7A1B061A433B681A60AE
:1051400004E000BF02E000BF00E000BF97F90E30AE
:10515000012B17D00120FDF793FD002300930023BE
:1051600000220021CF20FFF753FCCF20FFF7A2FD44
:105170000120FDF785FDFB7B013BFB73FB7B002BD7
:1051800000D09FE797F90E3018461037BD4680BD16
:1051900080B588B002AFF860B9601346FB80C823C1
:1051A0003B750A23BB7500237B75FB88012B03D15C
:1051B0000223FB8001237B75FA88387D002300934E
:1051C00013460022F968FFF723FC0346FB7597F9A5
:1051D0001730012B25D13B7D1846FFF76BFD0346A9
:1051E000FB7597F91730012B1DD17B7D002B0CD05F
:1051F000F98807F1100300221846FFF7B1FD0346B6
:10520000FB753A7CBB681A7007E0FB8800221946E0
:10521000B868FFF7A5FD0346FB7597F91730012B1A
:1052200002E000BF00E000BF97F91730012B17D054
:105230000120FDF725FD002300930023002200211B
:10524000CF20FFF7E5FBCF20FFF734FD0120FDF76E
:1052500017FDBB7D013BBB75BB7D002B00D0A4E7D8
:1052600097F9173018461837BD4680BD80B582B013
:1052700002AF00230093002300220021CF20FFF77C
:10528000C7FBCF20FFF716FD00231846BD4680BDA3
:1052900080B582B000AF00233B60244B00221A701F
:1052A0003B4619464EF62400FFF7FFFE0346002B4F
:1052B0000DD11E4B01221A703B4619464EF62400B2
:1052C000FFF7F3FE0346002B01D100232AE0174B22
:1052D0001B78002B19D13B6823F00C033B603B6823
:1052E00023F070033B603B6843F050033B603B6836
:1052F00019464EF62400FFF71FFE0346002B01D18E
:1053000000230FE0094B01221A703B1D19464FF490
:105310008050FFF7CAFE0346002B02D16FF0050351
:1053200000E0002318460837BD4680BDD0010020AC
:1053300080B400AF044B00221A7000231846BD460B
:105340005DF8047B704700BFD001002080B584B0B9
:1053500000AF786007F10C0319467868FFF7A5FEE7
:10536000FB6818461037BD4680BD80B584B000AFDD
:105370007860396039687868FFF797FE0346FB73F9
:1053800097F90F30012B02D10023FB7301E0FA23C0
:10539000FB7397F90F3018461037BD4680BD80B5B6
:1053A00084B000AF7860396039687868FFF7C4FD71
:1053B0000346FB7397F90F30012B02D10023FB73D7
:1053C00001E0FA23FB7397F90F3018461037BD46FA
:1053D00080BD80B586B000AFF860B9601346FB8031
:1053E000FB881A46B968F868FFF7D2FE0346FB75DA
:1053F00097F91730012B02D10023FB7501E0FA2346
:10540000FB7597F9173018461837BD4680BD80B533
:1054100086B000AFF860B9601346FB80FB881A467F
:10542000B968F868FFF7DCFD0346FB7597F917309C
:10543000012B02D10023FB7501E0FA23FB7597F9DC
:10544000173018461837BD4680BD000080B582B0C1
:1054500000AF3B467B607B68B9221A700021104880
:10546000FFF783F87B681B7819460E48FFF77DF835
:1054700001210D48FFF779F800210C48FFF775F876
:1054800081210B48FFF771F800BF0A48FFF753F876
:105490000346012BF9D100BF0837BD4680BD00BFD0
:1054A000080201000C020100140201001C020100AC
:1054B000040201001802010080B582B000AF3B4633
:1054C0007B607B68AB221A7000211048FFF74DF813
:1054D0007B681B7819460E48FFF747F801210D48F5
:1054E000FFF743F800210C48FFF73FF881210B48F4
:1054F000FFF73BF800BF0A48FFF71DF80346012BF2
:10550000F9D100BF0837BD4680BD00BF08020100C9
:105510000C020100140201001C020100040201003F
:105520001802010080B584B000AF0346FB71002370
:10553000FB73FEF77DFD0346C3F30B03B3F5687FF2
:1055400038D307F10803194641F21040FEF7FFFF78
:105550000346FB7397F90F30002B2AD1BB6823F069
:10556000EE6323F4EE23BB60BB6843F0887343F41F
:105570008833BB60BB68194641F21040FEF7F5FF67
:10558000FB79002B02D0FFF797FF01E0FFF75EFFEA
:10559000BB6823F0EE6323F4EE23BB60BB6843F4E7
:1055A0008033BB60BB68194641F21040FEF7DDFF57
:1055B00000E000BF97F90F3018461037BD4680BD98
:1055C000014B1868704700BF1000002070B50D4EE9
:1055D0000D4CA41BA4100025A54209D10B4E0C4C68
:1055E00000F08CFFA41BA4100025A54205D170BDBE
:1055F00056F8253098470135EEE756F8253098479C
:105600000135F2E74C6800084C6800084C68000857
:105610005068000810B501390244904201D10020C1
:1056200010BD10F8013B11F8014FA342F5D0181B33
:1056300010BD02440346934200D1704703F8011B9A
:10564000F9E700000FB40A4B13B51C6824B1A36935
:1056500013B9204600F024FA05AB049AA16801931F
:10566000204600F0E1FB02B0BDE8104004B07047F6
:105670001000002070B50E46054618B183690BB9BD
:1056800000F00EFAAB69AC6813B9284600F008FACE
:10569000234B9C4217D16C68A3891B071DD5236936
:1056A000DBB1013EA36816F8011F013BA360E9B915
:1056B000002B2EDA22460A21284600F03FF801305E
:1056C00011D00A2070BD174B9C4201D1AC68E3E7B2
:1056D000154B9C4208BFEC68DEE72146284600F0E7
:1056E0007FF80028DDD04FF0FF3070BD002B04DACA
:1056F000A269934206DB0A2904D023685A1C22605F
:105700001970CFE72246284600F018F80130C9D1B9
:10571000E9E723680A205A1C2260187070BD00BF98
:10572000D0670008F0670008B0670008024B014628
:105730001868FFF79FBF00BF10000020F8B50E46A5
:105740001446054618B183690BB900F0A9F9214B3D
:105750009C422AD16C68A369A360A3891A072ED53D
:10576000236963B323692068C01A6369F6B298425B
:10577000374604DB2146284600F028F928BBA368F9
:10578000013BA36023685A1C22601E7063690130CC
:10579000984204D0A389DB0719D50A2E17D12146D8
:1057A000284600F013F990B10FE00B4B9C4201D159
:1057B000AC68D0E7094B9C4208BFEC68CBE72146B8
:1057C000284600F00DF80028CCD04FF0FF373846BF
:1057D000F8BD00BFD0670008F0670008B067000898
:1057E000324B70B51D6806460C4625B1AB6913B93E
:1057F000284600F055F92E4B9C420FD16C68B4F945
:105800000C309AB215072CD4D00611D4092232607C
:1058100043F04003A3814FF0FF3070BD254B9C4205
:1058200001D1AC68EBE7244B9C4208BFEC68E6E78B
:10583000510712D5616B41B104F14403994202D082
:10584000304600F01BFA00236363A38923F024038E
:10585000A3810023636023692360A38943F00803C5
:10586000A38123694BB9A38903F42073B3F5007FA7
:1058700003D02146304600F0C1F9A28912F001039D
:105880000CD00023A36063695B42A361236953B911
:10589000B4F90C3013F08000BAD170BD920758BF34
:1058A0006369A360F2E70020F7E700BF1000002063
:1058B000D0670008F0670008B06700088A892DE902
:1058C000F041054610070C465AD44B68002B05DC06
:1058D0000B6C002B02DC0020BDE8F081E66A002E94
:1058E000F9D0002312F480522F682B6033D0606D02
:1058F000A3895A0705D56368C01A636B0BB1236C83
:10590000C01A00230246E66A216A2846B047431CB3
:10591000A38906D129681D294BD82B4ACA40D6072E
:1059200047D500226260D9042269226004D5421C56
:1059300001D12B6803B96065616B2F600029CAD063
:1059400004F14403994202D0284600F097F9002060
:105950006063BDE8F081216A01232846B047411CFD
:10596000C6D12B68002BC3D01D2B01D0162B01D123
:105970002F60B0E7A38943F04003A381BDE8F08125
:105980000F69002FA7D093070E6808BF4B690F60FF
:1059900018BF0023A6EB07088B60B8F1000F9ADD53
:1059A00043463A46216AA66A2846B047002807DCE3
:1059B000A38943F04003A3814FF0FF30BDE8F0819D
:1059C0000744A8EB0008E8E70100402038B50B6960
:1059D00005460C46DBB118B183690BB900F060F8DD
:1059E0000C4B9C4209D16C68B4F90C307BB1214658
:1059F0002846BDE83840FFF761BF074B9C4201D104
:105A0000AC68F1E7054B9C4208BFEC68ECE700206E
:105A100038BD00BFD0670008F0670008B067000815
:105A2000014900F0A9B800BFCD590008002310B506
:105A3000044603604360836081814366C2810361E1
:105A400043618361194608225C30FFF7F2FD054B84
:105A50006362054BA362054BE362054B246223633B
:105A600010BD00BFA1630008C3630008FB6300080A
:105A70001F64000870B54A1E682555430E4605F19F
:105A8000740100F049F9044640B1002180E8420069
:105A90000C30A06005F16802FFF7CBFD204670BD19
:105AA000836910B5044633BB8364C3640365124B3A
:105AB000124A1B688262984204BF0123836100F08E
:105AC0001FF86060204600F01BF8A060204600F040
:105AD00017F80022E06004216068FFF7A7FF0122A9
